{
  "address": "0x2F54D1563963fC04770E85AF819c89Dc807f6a06",
  "abi": [
    {
      "inputs": [],
      "stateMutability": "nonpayable",
      "type": "constructor"
    },
    {
      "anonymous": false,
      "inputs": [
        {
          "indexed": true,
          "internalType": "address",
          "name": "from",
          "type": "address"
        },
        {
          "indexed": true,
          "internalType": "address",
          "name": "to",
          "type": "address"
        },
        {
          "indexed": false,
          "internalType": "uint256",
          "name": "value",
          "type": "uint256"
        }
      ],
      "name": "transaction",
      "type": "event"
    },
    {
      "inputs": [],
      "name": "_getAddress",
      "outputs": [
        {
          "internalType": "address",
          "name": "",
          "type": "address"
        }
      ],
      "stateMutability": "view",
      "type": "function"
    },
    {
      "inputs": [],
      "name": "_getBlance",
      "outputs": [
        {
          "internalType": "uint16",
          "name": "",
          "type": "uint16"
        }
      ],
      "stateMutability": "view",
      "type": "function"
    },
    {
      "inputs": [
        {
          "internalType": "address payable",
          "name": "_to",
          "type": "address"
        }
      ],
      "name": "send",
      "outputs": [],
      "stateMutability": "payable",
      "type": "function"
    }
  ],
  "transactionHash": "0xc6bfa5b1f2049262dfc98d21d9523ddb358167cfef39ffd2c7eb2bbf49f2512b",
  "args": [],
  "numDeployments": 1,
  "solcInputHash": "ebc8bea1111094b13f673499ef255538",
  "bytecode": "0x60a060405234801561001057600080fd5b503373ffffffffffffffffffffffffffffffffffffffff1660808173ffffffffffffffffffffffffffffffffffffffff168152505060805161038761006c6000396000818160af0152818160ec01526101f501526103876000f3fe6080604052600436106100345760003560e01c80631d90a495146100395780633e58c58c14610064578063b2ceaa0114610080575b600080fd5b34801561004557600080fd5b5061004e6100ab565b60405161005b9190610236565b60405180910390f35b61007e600480360381019061007991906102b4565b6100ea565b005b34801561008c57600080fd5b506100956101f1565b6040516100a29190610302565b60405180910390f35b60007f000000000000000000000000000000000000000000000000000000000000000073ffffffffffffffffffffffffffffffffffffffff1631905090565b7f000000000000000000000000000000000000000000000000000000000000000073ffffffffffffffffffffffffffffffffffffffff163373ffffffffffffffffffffffffffffffffffffffff161461014257600080fd5b8073ffffffffffffffffffffffffffffffffffffffff166108fc349081150290604051600060405180830381858888f19350505050158015610188573d6000803e3d6000fd5b508073ffffffffffffffffffffffffffffffffffffffff163373ffffffffffffffffffffffffffffffffffffffff167fb5a151ba89290d7f3b668f3d1b864e555f3ce075ee899efe5df7c5abb6881fb7346040516101e69190610336565b60405180910390a350565b60007f0000000000000000000000000000000000000000000000000000000000000000905090565b600061ffff82169050919050565b61023081610219565b82525050565b600060208201905061024b6000830184610227565b92915050565b600080fd5b600073ffffffffffffffffffffffffffffffffffffffff82169050919050565b600061028182610256565b9050919050565b61029181610276565b811461029c57600080fd5b50565b6000813590506102ae81610288565b92915050565b6000602082840312156102ca576102c9610251565b5b60006102d88482850161029f565b91505092915050565b60006102ec82610256565b9050919050565b6102fc816102e1565b82525050565b600060208201905061031760008301846102f3565b92915050565b6000819050919050565b6103308161031d565b82525050565b600060208201905061034b6000830184610327565b9291505056fea2646970667358221220e18899e969c970c4c70ca210219a3ad01d1909ca1ce2c6631838c6ddd881d79f64736f6c63430008110033",
  "devdoc": {
    "kind": "dev",
    "methods": {},
    "version": 1
  },
  "userdoc": {
    "kind": "user",
    "methods": {},
    "version": 1
  },
  "storageLayout": {
    "storage": [],
    "types": null
  }
}